:020000040800F2
:10000000A0050020513300080F3300081133000809
:1000100013330008153300081733000800000000F0
:10002000000000000000000000000000193300087C
:100030001B330008000000001D3300081F330008B8
:10004000793300087D3300088133000885330008C8
:10005000893300088D330008913300089533000878
:10006000993300089D330008A1330008A533000828
:10007000A9330008AD330008B1330008B5330008D8
:10008000B933000800000000BD330008C133000888
:10009000C5330008C9330008CD330008D133000848
:1000A000D5330008D9330008DD330008E1330008F8
:1000B000E5330008E9330008ED330008F1330008A8
:1000C000F5330008F9330008FD3300080134000857
:1000D00005340008093400080D3400081134000804
:1000E0002333000815340008193400081D340008B3
:1000F00021340008253400082934000800000000DD
:10010000000000002D340008000000003134000819
:100110003534000800000000393400083D34000880
:100120004134000845340008493400084D340008C3
:1001300051340008000000000000000055340008A1
:10014000593400085D340008000000000000000081
:10015000000000000000000000000000000000009F
:1001600000000000000000000000000061340008F2
:1001700065340008000000000000000000000000DE
:1001800000000000693400080000000000000000CA
:10019000000000000000000000000000000000005F
:1001A00000000000000000006D34000871340008F9
:1001B00075340008793400087D3400080000000020
:1001C0000000000081340008000000000000000072
:1001D000853400088934000840F0200070472DE97C
:1001E000F14FB0B0924604910DF142013A9A2B9131
:1001F00099464A7000200AE01AF8011B0498309AC8
:1002000090470028049000F044860D98401C0D9003
:100210009AF8000058B12528EED1002000210022D4
:100220000790089109920A910B920C9104E00D98A5
:1002300000F031BE41F001011AF8010F2028F9D079
:1002400023280CD02B2804D02D2805D0302809D005
:100250000BE041F00201EFE741F00401ECE741F06F
:100260000801E9E741F01001E6E72A280FD1D9F8A3
:10027000002052F8040BC9F8002000280F9003D585
:1002800040420F9041F004010AF1010A14E00F927C
:10029000DFF8082C0AE00F9B934205DA03EB830496
:1002A00000EB440030380F900AF1010A9AF8000080
:1002B000A0F130030A2BEED39AF800202E2A03D0A7
:1002C0004FF0FF300E9029E01AF8010F2A2809D1CB
:1002D000D9F8002052F8040BC9F800200E900AF15A
:1002E000010A1BE02D280CBF0AF1010A00200022A0
:1002F0000E92DFF8A84B0BE040B90E9BA34205DA43
:1003000003EB830502EB4502303A0E920AF1010A33
:100310009AF80020A2F130030A2BEDD3ADF840107B
:100320000FF67C309AF8001000F0DAFE08B11AF8E7
:10033000010B8DF842009DF84200682805D19AF81B
:10034000001068290CD1622006E06C2804BF9AF8DE
:1003500000106C2904D171208DF842000AF1010AC5
:1003600012AA06921AF801BBBBF125002CD01C384A
:1003700000F09781001F022840F29381133800F0AB
:10038000BA84093800F08D81801E00F04F85401E30
:1003900000F0FC84401E022840F28381001F00F020
:1003A000F584401F00F0F280401E00F0A484401E3F
:1003B00000F0DA80C01E0ED0801E00F09C84C01EAB
:1003C00000F0998400F03DBD0122252107928DF8AF
:1003D000481000F042BDD9F8000050F8044BC9F8AD
:1003E0000000002C059440F0AB802B994878002841
:1003F00000F0A1804FF0FF340FF6AC2000F07CFE3F
:10040000241A40F0468500F028BD01236A4602A95F
:10041000304600F00DFE002840F03B85641EF4D10C
:100420003096079C12AF74B1309E17F8011B0498E8
:10043000B0470028049000F02C850D98401C641EE5
:100440000D90F2D130960A9C3021002C8DF80010CE
:100450000CDD309E01236A4602A9304600F0E8FD1B
:10046000002840F01685641EF4D13096059F089C44
:1004700074B1309E17F8011B0498B047002804900F
:1004800000F007850D98401C641E0D90F2D1309647
:100490000B9C3021002C8DF800100CDD309E0123C8
:1004A0006A4602A9304600F0C3FD002840F0F184FE
:1004B000641EF4D1309605980899099C471874B1C8
:1004C000309E17F8011B0498B0470028049000F0F4
:1004D000E0840D98401C641E0D90F2D130960C9C67
:1004E0003021002C8DF800100CDD309E01236A466F
:1004F00002A9304600F09CFD002840F0CA84641E2A
:10050000F4D130969DF8400041077FF581AE202060
:10051000002D8DF800007FF77BAE309C01236A46EA
:1005200002A9204600F084FD002840F0B2846D1E30
:10053000F4D130946CE60FF65830059000F08DBC85
:100540000E9D002D04D5204600F0F6FD044608E07F
:100550002A460021204600F00BFE002814BF041B91
:100560002C46089400F079BCD9F8001051F8040B1F
:10057000C9F8001020F00002002121F0FF33CDE97E
:10058000022312AC0594782100F04CBC2B994878DA
:1005900020B14FF0FF340FF6C8202FE79DF842003E
:1005A000622860D0682817D06A283FD06C2806D00F
:1005B000712847D074282CD07A281DD062E0D9F851
:1005C000001051F8040BC9F80010002866D14FF054
:1005D000FF340FF6A42011E7D9F8001051F8040BEE
:1005E000C9F8001020B94FF0FF340FF68C2005E752
:1005F0000D99018000F031BCD9F8001051F8040BBE
:10060000C9F80010002849D14FF0FF340FF66820D8
:10061000F4E6D9F8001051F8040BC9F800100028CE
:100620003CD14FF0FF340FF65020E7E6D9F8001028
:1006300051F8040BC9F8001080B94FF0FF340FF6E1
:100640003820DBE6D9F8001051F8040BC9F8001087
:1006500020B94FF0FF340FF62020CFE60D9AD317C4
:10066000C0E90023F9E3D9F8001051F8040BC9F8E8
:10067000001020B94FF0FF340FF6FC10BEE60D99C4
:100680000170EAE3D9F8001051F8040BC9F8001022
:1006900020B94FF0FF340FF6E010AFE60D9901607E
:1006A000DBE39DF842004C2807BFD9F80010CA1DB3
:1006B000D9F80000C21D22F00702C9F80020D2E9D3
:1006C00000010832C9F80020CDE90201C80F02D0AC
:1006D00007982D210AE0BDF84000810702D5079850
:1006E0002B2103E0C00705D50798202112AA115439
:1006F000401C079012A807994BF0200300EB010C57
:10070000DDE90201CDE92C01612BCDF814C021AC4B
:100710000BD00E98002848BF062105D404BF4BF02B
:100720002000672801D101210E91DDE902014F006F
:1007300047EAD0777E15FF174FF0FF32974208BF88
:10074000964210D1090341EA10510003002908BF65
:10075000002808D0ABF1610503211A2D089118D3A8
:100760000FF6341110E0DDE902014A00521512F1D2
:10077000010F11D108030FD1ABF1610503211A2D2F
:1007800008911FD30FF618110322604600F01CFDDC
:1007900063E30FF60011F7E7DDE902016A4600F0B6
:1007A00067FDCDE902014BF02000612811D10598C9
:1007B00030220270811C0591BBF1610F0CBF7821C2
:1007C000582102E00FF6D401DEE741700798801C43
:1007D0000790DDE9020120F0000231F0004308BF7C
:1007E000002A02D10026002542E14BF02008B8F192
:1007F000610F40F092800E99002947BF212001909F
:10080000491C0191019FDDE92C017F1C002200237E
:10081000DDE9024500F064FD38BF85F00045009831
:100820008DF88420001F002F00900DF1850632DD29
:10083000204629460022002300F06CFD2BD21C220A
:1008400000F082FD04460D4600F01CFEFF1F002F45
:10085000804609DD00F032FE02460B46204629465E
:1008600000F0F4FE04460D46F01D0721B8F1000F1C
:100870000CDD491E5EBF08F00F0200F8012D4FEAA3
:100880002818F3D502E0002200F8012D491EFAD500
:10089000C61D002FCCDC0DF18500361A01980DF134
:1008A00085048642D8BF304600282FD4B04206DAED
:1008B0000DF185010A5C082AA8BF0F2100DA00218A
:1008C000024621AB134400E0401E13F80159521EAA
:1008D0008D42F9D00F2904D10DF185018B5C5B1C91
:1008E0008B54002A04D50099091D21AC401C0091AD
:1008F000411E0BD4621813783033DDB23A2DA4BFF9
:100900005B443A3B491E02F80139F4D50E9A002A9D
:1009100040F1AC80411E0E91A8E00099DFF800275D
:1009200047F29750414391FBF2F20092DDE92C45EA
:10093000C2F10702002A25F0004504DD20462946C1
:1009400000F04AFB0BE052420020DFF8D81600F01E
:1009500043FB02460B462046294600F0E9FE0446CA
:100960000D46B8F1660F06BF009F0A3706270E989E
:100970003F18142FC8BF142730208DF884000DF1C4
:100980008506002F34DD2046294600F0F5FF01469C
:100990000A4606F1080304200A26B2FBF6F606EB27
:1009A000860EA2EB4E02303203F8012C0A22B6FB6F
:1009B000F2F202EB820EA6EB4E063036401E03F832
:1009C000026DE9D1083F002F03F10806D9DD084682
:1009D00000F0E4FF02460B462046294600F036FEB2
:1009E0000022DFF8443600F0E7FF04460D46CAE770
:1009F0000DF18500361A0DF1850404E00098401EC3
:100A0000761E0090641C20783028F7D0B8F1660F6D
:100A100002D10098401C04E0B8F1650F0CBF012022
:100A200000200E9940188642B8BF701E00281DD4C1
:100A3000B04204DA215C3429C8BF392100DC3021FE
:100A40000246631E9D1800E0401E15F80169521E03
:100A50008E42F9D0392902D1A15C491CA154002A47
:100A600004D50099491C1C46401C00910646009D77
:100A700001F078F8406A0778DDF8388030B2002855
:100A800002DC01260FF21C644BF02000662808BF30
:100A90006D1C16D0672845D128B210F1040F47DB32
:100AA000404545DA9DF840006D1C010703D430B283
:100AB0004045D8BF804628B2B8EB000848BF4FF089
:100AC00000080FFA85FBBBF1000F00F3B380089814
:100AD000411C0891302205990A54B8F1000F03DC3B
:100AE0009DF84000010704D50898411C089105991C
:100AF0000F5418EB0B0FB8BFC8F100052DB26842B8
:100B0000454432B20B909542B8BF2E46059B0898DB
:100B100036B2099632462146184400F055FBAD1B0B
:100B20000C95D1E0BBF1610F17D14FF0700B19E0BC
:100B300030B2404504DA9DF840100A0758BF80469D
:100B4000B8F1010848BF4FF00008BBF1670F14BFB0
:100B50004FF0450B4FF0650B04E0BBF1410F08BFB0
:100B60004FF0500B0898411C0891B8F1000F0599FF
:100B700014F8012B0A5403DC9DF8400001071AD534
:100B80000898411C0891B8F1000F05990F5412DD27
:100B9000761E30B28045B8BF46460598089B32B2F3
:100BA0002146184400F010FB089836B2301808901F
:100BB000A8EB06000B9005980899014428B200287C
:100BC00081F800B003D42B204870891C04E02D224A
:100BD0004A700546891C6D4200202CAA0AE02B466B
:100BE0000A2593FBF5F505EB8504A3EB440302F816
:100BF000013B401C2DB2002DF1DC012806DC4BF03E
:100C00002002652A04BF302201F8012B00282CAAFB
:100C100008D1302001F8010B06E0401E135C303390
:100C200001F8013B0028F8DC059A08981044091ADD
:100C3000099149E030B229B288421CDA0598089B34
:100C400032B22146184400F0BFFA089936B2711842
:100C50000891ABEB0600B8F1000F0B9003DC9DF898
:100C60004000020704D5059847540999491C099189
:100C7000CDF8308028E00598089B2AB22146184418
:100C800000F0A2FA0898761B5844B8F1000F0890BB
:100C900003DC9DF840100A0703D5411C0891059913
:100CA0000F5430B28045B8BF46460598089B32B213
:100CB00004EB0B01184400F087FA089836B230189C
:100CC0000890A8EB06000B909DF8400000F014007F
:100CD000102840F0C280079A08980B99821809984A
:100CE0008A1882180C980F998018884280F2B58073
:100CF000081A0A90B1E09DF84200622808D06828DE
:100D00000ED06A2814D06C281FD0712810D01CE097
:100D1000D9F8001051F8040BC9F80010C0B21AE05D
:100D2000D9F8001051F8040BC9F8001080B212E095
:100D3000D9F80000C21D22F00702C9F80020D2E94C
:100D400000010832C9F8002006E0D9F8001051F877
:100D5000040BC9F800100021CDE902019DF8400004
:100D600002075AD5DDE90201002908BF002854D046
:100D70004BF02002782A50D1079812A930230B5447
:100D8000401C421C079201F800B046E09DF842006A
:100D9000622808D068280ED06A2814D06C281FD08A
:100DA000712810D01CE0D9F8001051F8040BC9F8D4
:100DB000001040B21AE0D9F8001051F8040BC9F83D
:100DC000001000B212E0D9F80000C21D22F00702A4
:100DD000C9F80020D2E900010832C9F8002006E075
:100DE000D9F8001051F8040BC9F80010C117CDE96B
:100DF0000201002902D507982D210AE0BDF8400024
:100E0000810702D507982B2103E0C00705D5079875
:100E1000202112AA1154401C079012A807990144DE
:100E20000591594602A800F04DF816E00120079000
:100E3000D9F8001051F8040BC9F800108DF84800DB
:100E40000BE001202521BBF1000F07908DF8481021
:100E500003D0022107918DF849B00F9D07980A9998
:100E60002D1A08986D1A0B992D1A09986D1A0C995C
:100E70002D1A9DF840006D1A41073FF5D2AA202097
:100E8000002D8DF800007FF7CCAA309E2C46FFF78E
:100E9000BCBA4FF0FF3031B0BDE8F08FCBCCCC0CFA
:100EA000686A6C747A4C00007072696E74665F7365
:100EB0003A2062616420257320617267756D656EEA
:100EC000740000002DE9FC4D06468846376940460F
:100ED0006F2808BF082405D0FFF77EF9782814BFD3
:100EE0000A241024D6E900013C2582468B46B8F13D
:100EF000640F18BFB8F1690F05D1002903D5DAF1E5
:100F0000000A6BEB4B0BBBF1000F08BFBAF1000FEF
:100F10000CD1306B50B9082C3AD196F83800010743
:100F200036D530223B2587F83B2031E08DF8008014
:100F3000504659462246002300F018FE3032D0B207
:100F40006D1E3A2801950EDA7A55504659462246CA
:100F5000002300F00BFE82465FEA010B08BFBAF1E6
:100F6000000F05D108E09DF800001218513AEBE798
:100F7000F06879198842DBD3082C09D196F838003B
:100F8000010705D5785D302802D06D1E30207855D8
:100F9000C5F13C02306BB26179198242F16008DA26
:100FA000318F821A4FF6EF70014031873262BDE80F
:100FB000F38D00280ED596F8380000F014001028A4
:100FC00008D1736B7069316A1B1A5B1A9B1A002B6C
:100FD000C8BF3362BDE8F38D2DE9D04306460F4606
:100FE00014464FF00008DFF8449012E0E00707D500
:100FF00042464B463046394600F0DEFC06460F4678
:101000004046494642464B4600F0D6FC64108046B6
:101010008946002CEAD130463946BDE8D08300002D
:10102000A08601000000F03F84D7974100002440D3
:10103000F8B505460E4617461C4600205CB117F869
:10104000011BB068A847B06030B1F06A401CF06284
:101050000020641EF3D1F2BD4FF0FF30F2BD00005E
:101060007072696E74665F733A20256E20646973CE
:10107000616C6C6F776564007072696E74663A209B
:1010800062616420256E20617267756D656E740003
:10109000000000006E616E004E414E00696E6600F9
:1010A000494E4600300030B50168846842184168F6
:1010B00002EB5103C90703D54C4401E0491C08D198
:1010C0009A4218BF12F9011B01D10C3030BD12F841
:1010D000015B002904F8015BF0D4491EF7D5EFE766
:1010E000C9B202788A421AB11CBF10F8012FF9E781
:1010F00018BF002070472E0080B500B906A0054932
:101100000B681BB122220021984701E000F0B1FDDD
:10111000222002BD94010020636F6E7374726169B6
:101120006E742068616E646C65723A20626164203E
:101130006D6573736167650000F10103810704D079
:1011400010F8011B820781B1FAD10268A2F10131C6
:10115000914311F0803104BF50F8042FF6E709BA2B
:10116000B1FA81F100EBD100401CC01A70470000B9
:10117000C9B2830706D0521E22D310F8013B994210
:10118000F7D11FE0083A13D302F1040241EA01212A
:1011900041EA014150F8043B121F21BF4B40A3F12B
:1011A000013C2CEA030C1CF0803FF3D0C9B2001FB5
:1011B0000832521E24BF10F8013B91EA030FF8D801
:1011C00018BF0120401E704762B38B0708D0521E23
:1011D00011F8013B00F8013B00F024808B07F6D1A9
:1011E000830740F0208000BF103A07D330B4B1E845
:1011F0003810103AA0E83810F9D230BC530724BF99
:10120000B1E80810A0E8081044BF51F8043B40F8CA
:10121000043BD20724BF31F8022B20F8022B44BF35
:101220000B7803707047121F17D35B0009D151F878
:10123000043B20F8023B1B0C121F20F8023BF6D2A5
:101240000BE051F8043B00F8013B1B0A20F8023B7D
:101250001B0C121F00F8013BF3D238BF121D521EA7
:1012600024BF11F8013B00F8013BF8D8704700009B
:1012700010B5144600F002F8226010BDC1F30A5305
:1012800043B14A0012F5001F28D2A3F2FE32A1EBAF
:101290000251704750EA410C20D001F0004C31EA75
:1012A0000C01B1FA81F204BFB0FA80F3D2180B3A04
:1012B000B2F120032CBF00FA03F1914041EA0C0186
:1012C0003EBFC2F1200C20FA0CF319439040524269
:1012D00040F2FD33D21A01EB0351704700227047F0
:1012E00041EA030C50EA4C0C52EA0C0C4FF4001C7F
:1012F00009D307D01CEB410F9CBF1CEB430F8B4263
:1013000008BF824270471CEB430FFBD8994208BFCD
:101310009042704741EA030C50EA4C0C52EA0C0C24
:101320004FF4001C09D307D01CEB410F9CBF1CEBF2
:10133000430F994208BF904270471CEB410FFBD806
:101340008B4208BF82427047124254D440F2FF7C65
:101350001CEA11530FD0634531D09B1863453CBF45
:1013600001EB0251704701F0004141EA0C510020AD
:10137000AFF30080704750EA410320D001F0004CE9
:1013800091EA0C011CD0B1FA81F30B3B9A420DD9C2
:10139000D21A994051EA0C01C3F1200C20FA0CFC3E
:1013A00061449840531C40F2FF7CD7E7914041EAEA
:1013B0000C01C2F1200C20FA0CF319439040704745
:1013C000B0FA80F31533202BE0D3202AEED3203A55
:1013D000203B9A4209D9D21A00FA03F141EA0C01E2
:1013E0000020531C40F2FF7CB8E700FA02F141EA0A
:1013F0000C0100207047524240F2FF7C1CEA11535E
:101400000DD06345DBD0B2EB030C3CBFA1EB025126
:1014100070470CF1010221EA035141F4801150EAB6
:10142000410CCCD001F0004C352A27DC30B481EAE5
:101430000C01B2F1200309DAC2F12003044601FADB
:1014400003F5D0402843D1409C400CE0C3F120027A
:10145000450020FA03F418BF44F0010421FA03F018
:1014600091400C43002174F1004550F1000051EB14
:101470000C01244230BC7FF47BAF704761460020F2
:1014800076E70000C1F30A5340F21E42D31A0CDD86
:10149000CA0283F3070342EA505242F00042DA40A4
:1014A00002EBE17282EAE17070476FEAE17203F2E7
:1014B000E13008B182F000407047000010F00041B8
:1014C00060B148BF4042B0FA80F29040D21CC2F5F1
:1014D000846241EA025202EBD021400570470000CD
:1014E000841A71EB030604D26E40001BB14112193D
:1014F00073414FF4001C1CEB410F34BF7CEB4306DF
:1015000083E00C0DA4EB1356362E00F37C80012EE5
:1015100045EAC32341DC43EA525312BFD20292028E
:101520005B08240545EAC12141EA5051D2EBC020B5
:10153000994125D407D1B0FA80F610FA06F162D0AD
:101540000020203608E0B1FA81F6B140C6F1200251
:1015500020FA02F21143B0404FEAF474B4EB46545F
:1015600034F001064FEA74040AD8D6F50016760D59
:1015700004F00044F04061FA06F25040F140484067
:10158000C00A40EA415021F0004128BF5FEA5005FF
:1015900050F1000044EBD12135E0DB0A45EAC121DE
:1015A000C90AB6F120050EDD42EA0242120CC5F16D
:1015B000200603FA06F6EB4042EA06056D42984122
:1015C00061F100010DE062FA06F5F240554063FA60
:1015D00006FC82EA0C02F3405A406D42904161EBF6
:1015E000030111F4801F05D1641E620502D06D0055
:1015F0004041494121F48011430875F1004350F105
:10160000000041EB045170BC70471CEB410F15D238
:1016100023F0004352EA43060BD04FEA4C0CBCEBDC
:10162000410F04D80C0D661E342EB7DDEBE7801A8F
:10163000994150EA410608BF0021E4E708BF1CEBCE
:10164000430F28BF6FF00001DDE7000070B491EA9E
:10165000030F4FF000457FF543AF6B40841A71EBE9
:10166000030603D2001BB141121973414FF4001C51
:101670001CEB410F34BF7CEB430442E00C0DA4EBA8
:101680001356352E4FDC45EAC323DB0A45EAC12158
:10169000C912B6F120050DDD63FA05F6EB4086EAC6
:1016A0000305124218BF45F00105C01851F10001B1
:1016B0000CD213E062FA06F5F2405540F3415A406D
:1016C000B340F3405A408018594107D349085FEAB4
:1016D00030005FEA350528BF45F0010501F58011AE
:1016E000420875F1004250F1000041EB04514E00F8
:1016F00016F5001F70BC38BF70470020090D0905A2
:1017000070471CEB410F10D252EA43060BD0BCEBE2
:10171000410F05D80C0DAB43661E342EB6DD02E03A
:10172000AB438018594170BC704770BC70470000D3
:10173000F0B540F2FF7581EA030C0CF0004C15EA9D
:1017400011541DBF15EA1357AC42AF42E5E0BC414E
:10175000C1F31301C3F31303801A994143F48013B7
:1017600004D2641E0018494180185941C90241EA57
:101770005051B1FBF3F603FB1611A2FB0675D7EB34
:10178000C020A94102D2761E80185941C90241EAFF
:101790005051B1FBF3FE03FB1E11A2FB0E75D7EBFC
:1017A000C020A94103D2AEF1010E8018594189022F
:1017B00041EA9051760546EA8E2EB1FBF3F603FB23
:1017C0001611A2FB0675D7EB8020A94102D2761E26
:1017D00080185941C90241EA50514EEA060EB1FB48
:1017E000F3F603FB1611A2FB0675D7EBC020A94147
:1017F00002D2761E80185941C90241EA5051B1FB0C
:10180000F3F703FB1711A2FB0735D3EBC020A94167
:1018100067F100070CBF004247F0010766F3D527C8
:101820004FEA1E31B80814F5806412DDBD0775F16A
:10183000004250EB0E5051EB045111F5801F5CBF7C
:1018400041EA0C01F0BD4CF07F6141F0E041002025
:10185000F0BDBD076D0840EA0E5041F48011D4F18F
:101860000104B4F120060ADAC4F120060200E040C7
:1018700001FA06F3E1401843B24015430EE0342C60
:1018800013DCC6F1200445EA40056D0820FA06F293
:10189000154321FA06F0A1400D43002175F10042E5
:1018A00050F1000051EB0C01F0BD00205FEA0C018B
:1018B000F0BDCFB992185B41B3FA83F704BFB2FA17
:1018C00082F6BF190B3FB7F120062FBF02FA06F3CD
:1018D000BB40C7F1200622FA06F638BF3343BA40B0
:1018E0001CB1E419641E33E77F4231F00041B1FAC4
:1018F00081F404BFB0FA80F6A4190B3CB4F12006C1
:101900002FBF00FA06F1A140C4F1200620FA06F626
:1019100038BF3143A0403C1B1AE7AC421ABF05EA6E
:101920001357AF4212E050EA41061CBF52EA430689
:10193000BFE750EA4107304661461CBF41EA055106
:10194000F0BD52EA430C08BFC143F0BD00204FF484
:10195000001616EB410F98BF16EB430F08BF16EBAE
:10196000410F24BFC14305E016EB430F0CBF614696
:101970004CEA0551F0BD0000400D40F21E4C40EA1B
:10198000C120BCEB115C40F0004003D48CF3070194
:10199000C84070476FEAE1707047000050B1B0FA7C
:1019A00080F18840C91CC1F58461090501EBD02193
:1019B000400570470146704730B540F2FF7C1CEA95
:1019C00011541DBF1CEA1355644565453FE0641979
:1019D00081EA030C6FF35F530CF0004C43F4801367
:1019E000C90241F0004141EA505EC5021100A5FB69
:1019F000020200284FF00000EEFB01204FF0000132
:101A0000E3FB052118BF42F00102401800214941C3
:101A1000E3FB0E01A4F580640D0302D2921840414D
:101A2000494154F1010470DD450872F1004250F162
:101A3000000051EB0451A1F5801102D441EA0C01E0
:101A400030BD40F2FF7E4CEA0E51002030BD0CEA62
:101A50001355644518BF654581EA030C0CF0004C32
:101A600041D050EA410E1CBF52EA430E02E06146EB
:101A7000002030BD24422C441BD15FEA050EF6D075
:101A8000090302BF01460020AEF1140EB1FA81F540
:101A9000AEEB050401FA05FE0C35C5F1200100FA94
:101AA00005F5C8404EEA000E6FF35F5343F4801310
:101AB0009CE733F00043B3FA83F504BFB2FA82FE29
:101AC00075440B3D641BB5F1200E2FBF02FA0EF3D7
:101AD000AB40C5F1200E22FA0EFE38BF43EA0E03DA
:101AE000AA40641C7CE750EA410E14BF52EA430E40
:101AF0006FF000014FF4001515EB430F8EBF194630
:101B000015EB410F9DE7B4D830BDD4F10104B4F119
:101B100020050FDAC4F12005520828BF42F0010267
:101B200010FA05FE01FA05F57244E2BFE0402843D1
:101B3000E1400FE0352C9ADCC5F1200452EA400266
:101B400020FA05F218BF42F0010231FA05F0A14077
:101B50000A43002172F1004250F1000051EB0C01E8
:101B600030BD00000048704710000020D3BBD9B141
:101B7000B2F5803F5BD2022A1ED98C46B1FBF2F14E
:101B800002FB11C31B0443EA1043B3FBF2FC02FB4C
:101B90001C3380B240EA0343B3FBF2F002FB103285
:101BA00040EA0C4000237047022A05D98446B0FB66
:101BB000F2F002FB10C270474AB105D100F00102F9
:101BC00049085FEA3000704700220023704700F0A8
:101BD00053B80B000200002100207047F7D3002209
:101BE00000237047904271EB030CF2D370B5B1FA49
:101BF00081F4B3FA83F52C1BA340C4F1200532FA1B
:101C000005F63343A2405FF00046E64002E05B0881
:101C10005FEA3202841A71EB030524BF204629468D
:101C20007641F4D302000B003000002170BD70B586
:101C3000B1FA81F4B2FA82F5C4F120046419B4F166
:101C40002006DAD3B2405FF00044F440002502E001
:101C500052085FEA3303C61A71EB020E24BF304606
:101C6000714664416D41F3D302000B00200029004E
:101C700070BD012000F002B87047000080B5AFF3DE
:101C80000080024A11001820ABBEFBE726000200CC
:101C900038B5040001D1012032BD04F18405686823
:101CA00008B900F020F800F015F808B100F031F89C
:101CB00000F02CF8012804D000F004F821F02A01EB
:101CC00016E032BD2068416821F4904141602068EF
:101CD00081687047242068602068016849084900CD
:101CE0000160A06A704700212970204600F006BB01
:101CF000816000F004F8BDE8324000F00ABA2068C4
:101D0000016841F00101016020467047204600F063
:101D100069B8204600F09AB92DE9F843064606F165
:101D200054070C46786B20281546994647D1002C5D
:101D300035D0280033D00020F8632121796300F0EA
:101D4000DFFA3D807D80B168B1F5805F04BF316905
:101D500000291ABF21464FF00008A04605460C4650
:101D600002E07888411E79802B467888CDF8009073
:101D7000002816D000228021304600F027FAD0B982
:101D80003068002C06BF38F8021BC1F3080114F8B4
:101D9000011B8162786B00F021002128E1D0012035
:101DA0000EE000224021304600F010FA18B9202041
:101DB0007863002004E020207863032000E0022004
:101DC000BDE8F283206850E8001F024621F49071BC
:101DD00042E8001000287047206850E8001F0246C3
:101DE00070470000F8B50446DFF8E804226813687D
:101DF000A168034020690B4361690343E0690B4319
:101E00000343136000255168E06821F44051014309
:101E10005160A369DFF8C0148A421CBF206A0343E3
:101E20009668DFF8B804DFF8B8E4DFF8B874064065
:101E3000334393600FF28446D36A606A1B0940EA19
:101E40000313D3627245DFF8A0044FF400433ED180
:101E50003F6807F00307032F47D8DFE807F0028940
:101E6000789D4FF0010CE169B1F5004F4FF6F07726
:101E700040F0B480BCF1000F0FD0BCF1010F00F0B6
:101E8000A580BCF1020F0CD0BCF1040F00F0A180C2
:101E9000BCF1080F00F0A080CDE000F019FD002893
:101EA00014D0626A616836F81230B0FBF3F04A0869
:101EB00002EB4002B2FBF1F0A0F11001B942EBD20B
:101EC0000740C0F3420007432068C760B4E0DFF872
:101ED0001CC462452CD13F6817F00C075AD0042F60
:101EE00046D0082F33D00C2F56D04FF0100C8A421A
:101EF000B9D1BCF1000F09D0BCF1020F0AD0BCF17E
:101F0000040F4CD0BCF1080F4CD094E000F0E0FC82
:101F10000028DBD0616A36F81120B0FBF2F6626867
:101F200002EB42018E4202D31303B3423CD282E061
:101F3000DFF8BCC362450DD13F6817F0300729D0E8
:101F4000102F15D0202F02D0302F25D0CDE74FF005
:101F5000020CCCE7DFF89CC362450CD13F6817F058
:101F6000C00717D0402F03D0802FF0D0C02FECE750
:101F70004FF0040CBBE78A42B7D13F6817F44067C3
:101F800008D0B7F5806FF3D0B7F5006FDFD0B7F5A5
:101F9000406FDAE7AC46AAE74FF0080CA7E700F07D
:101FA00068FCB5E71846B5E75008002110EB06209D
:101FB00051EB16610023FFF7D9FDA0F54076DFF85D
:101FC0003873BE4237D22168C86035E000F088FC23
:101FD00065E700F04EFC62E7184662E7BCF1000FCF
:101FE0000CD0BCF1010F1ED0BCF1020F09D0BCF126
:101FF000040F1BD0BCF1080F1BD01CE000F068FCE4
:10200000D0B1626A36F812306168B0FBF3F000EBD1
:102010005100B0FBF1F0A0F11001B9420BD22268DF
:1020200080B2D06008E000F05BFCE9E700F021FC42
:10203000E6E71846E5E7012504F1680001210023E1
:1020400041800180C36003612846F2BD90F82810EA
:102050000A0706D502685368816B23F400430B43DB
:10206000536090F82810CA0706D502685368C16A01
:1020700023F400330B43536090F828108A0706D5E9
:1020800002685368016B23F480330B43536090F86C
:1020900028104A0706D502685368416B23F4802351
:1020A0000B43536090F82810CA0606D5026893685F
:1020B000C16B23F480530B43936090F828108A0679
:1020C00006D502689368016C23F400530B439360B8
:1020D00090F828104A0610D502685368416C23F422
:1020E00080130B435360436CB3F5801F05D15368D5
:1020F000816C23F4C0030B43536090F828100A0648
:1021000006D501684A68C06C22F4002202434A6086
:102110007047F8B5044604F184050020E8606FF0CC
:102120007E4700F0EDF80646206801680A0714D5DE
:102130000097334600224FF40011204600F046F885
:1021400058B1FFF749FE21F0800100F02DF8F8D1D9
:1021500004F184002021416016E0206801684A07EC
:1021600016D50097334600224FF48001204600F038
:102170002DF868B1FFF726FEFCD100F019F8FCD16C
:1021800004F1840020218160002202700320F2BD4E
:10219000202068602021A9600020E06600212167DE
:1021A0002870F2BD41F0800142E80010002870471D
:1021B000216801F1080353E8001F2068490800F175
:1021C0000802490042E80010002870472DE9F0415C
:1021D000069C05460E4690461F462868C169314058
:1021E000B1420CBF01200020404537D114F1010F4E
:1021F000F3D000F085F8C01B844200D314B903204B
:10220000BDE8F081286801684A07E6D5802E18BF2E
:10221000402EE2D0C169080704D42968C8690105C5
:10222000DBD50DE02A6808201062284600F018F877
:1022300005F184000821C160002202700120DFE75F
:1022400029684FF400600862284600F009F805F19B
:1022500084002021C16000220270D0E70020CFE777
:10226000016851E8002F0B4622F4907243E80021E8
:102270000029F5D1016801F1080301F1080253E8D2
:10228000003F0D490B4042E800310029F2D1C16EF8
:10229000012909D1026852E8002F036822F01002D8
:1022A00043E800210029F5D12021C0F88C1000223C
:1022B000C266426770470000FEFFFFEF01000200A8
:1022C0000400060008000A000C0010002000400076
:1022D00080000001F369FFCF00800040FFF4FF1190
:1022E00000380140881002400024F40000440040FF
:1022F00000480040004C004000FD0F007047000007
:1023000001480068704700BF000000202DE9F84335
:1023100004006DD02078DFF8E065C10717D500F024
:10232000CDF90CD101F0030103290AD06068B0F5A2
:10233000803F2AD1306840F48030306037E0082890
:10234000F4D13068810302D56068002850D021782C
:10235000880759D500F0B2F943D101F003010229F1
:1023600041D0E06800286AD0316841F48071316062
:10237000FFF7C6FF0546306841055DD4FFF7C0FF93
:10238000401B0328F7D303205FE1B0F5A02F30688E
:1023900006D140F480203060316841F4803105E09E
:1023A00020F480303060316821F480213160606831
:1023B00058B1FFF7A5FF054630688103C7D4FFF782
:1023C0009FFF401B6528F7D3DDE7FFF799FF054620
:1023D00030688103BBD5FFF793FF401B6528F7D317
:1023E000D1E70428BDD13068410503D5E068002855
:1023F00000F05A8100F05AF9DFF80805006800F093
:1024000097FA002840F050812078DFF8FC7401072B
:1024100034D560690028786821D040F001007860E8
:10242000FFF76EFF05467868810727D4FFF768FF3E
:10243000401B0328F7D3A6E700F038F9E4E730683B
:1024400020F480703060FFF75BFF0546306841057F
:10245000DAD5FFF755FF401B0328F7D393E7400871
:1024600040007860FFF74CFF05467868810705D586
:10247000FFF746FF401B0328F7D384E72078410786
:1024800063D5B06D0025C10009D4B06D40F0805017
:10249000B0650125B06D00F0805000900098DFF825
:1024A0006C94D9F80000C10513D4D9F8000040F4A9
:1024B0008070C9F80000FFF723FF8046D9F80000BC
:1024C000C10506D4FFF71CFFA0EB08000328F5D3D5
:1024D00059E7A068012804D1386840F0010038604D
:1024E00010E00528386806D140F0040038603968EB
:1024F00041F0010105E0400840003860396821F0F2
:1025000004013960A06841F2893860B1FFF7F8FE34
:1025100081463868810713D4FFF7F2FEA0EB09006B
:102520004045F6D32FE7FFF7EBFE81463868810779
:1025300006D5FFF7E5FEA0EB09004045F6D322E7FC
:102540001DB1B06D20F08050B0652078810621D596
:10255000A0690028B8680ED040F00100B860FFF70D
:10256000CFFE0546B868810714D4FFF7C9FE401BAB
:102570000328F7D307E740084000B860FFF7C0FE24
:102580000546B868810705D5FFF7BAFE401B03284A
:10259000F7D3F8E6E069002856D0B16801F00C01E5
:1025A0000C2954D00228306820F0807030603AD175
:1025B000FFF7A6FE05463068810105D5FFF7A0FEAE
:1025C000401B0328F7D3DEE6F268DFF84403216AF4
:1025D0000240606A0A43401E42EA0012216BA06A70
:1025E000490842EA0022606B491E400842EA415213
:1025F000401E42EA4062E06A42EAC062F26031682C
:1026000041F080713160F06840F08070F060FFF759
:1026100077FE04463068810116D4FFF771FE001B77
:102620000328F7D3AFE6FFF76BFE0446306881015D
:1026300005D5FFF765FE001B0328F7D3A3E6F16875
:10264000DFF8D0020140F1600020BDE8F2830128EC
:102650002AD0F068226A00F00301914201BF00F025
:10266000F0011031626AB1EB021F1DD1A26A00F4C1
:10267000FE41B1EB022F02BF00F07841E26AB1EBFC
:10268000C26F11D1226B00F4C00101F50011520894
:10269000B1EB425F08D1616B00F0C06000F10070E7
:1026A0004908B0EB416FCFD00120CEE770682169B7
:1026B00020F0FE4040EA016070607047B068F16849
:1026C00000F00C000C2870472DE9F84F0446002656
:1026D000002C6CD0DFF840723868894600F00F009B
:1026E000484506D200F0BFF8386800F00F004845B2
:1026F0005DD12068DFF80052C10741F2893858D512
:102700006168DFF818B203294FF0080A27D1296859
:102710008A014CD5EA68E968C1F30311491C02F04B
:102720000302032A0CBFDFF8F821DFF8D421B2FB43
:10273000F1F2E968C1F306215143EA68C2F341624C
:10274000521C5200B1FBF2F1594516D3AA6812F09F
:10275000F00F0DD0810710D5A06870B908E00229EC
:10276000286822D1810322D500F083F8584504D38C
:10277000A8686AF30710A8608026A96860688908BD
:1027800040EA8101A960FFF7BBFD8246A868616845
:1027900000F00C00B0EB810F0BD0FFF7B1FDA0EB08
:1027A0000A004045F2D303205BE04105DCD4012060
:1027B00057E02068810714D5400703D5A96841F484
:1027C000E061A9602078010704D5A968072060F3BB
:1027D0000D21A960A968A06821F0F0010143A9605A
:1027E00005E0802E03D1A86820F0F000A8603868CA
:1027F00000F00F0081450FD200F035F8FFF780FDA3
:102800000646386800F00F00484505D0FFF778FD10
:10281000801B4045F5D3C6E72078420705D5A96857
:10282000E06821F4E0610143A9602178080706D53A
:10283000A968206921F4605141EAC001A96000F053
:1028400018F8AA683749C2F30312895C2B4A01F0D1
:102850001F01C8401060BDE8F24F2A48006800F030
:1028600067B8BDE8F28F3968090949EA0111396092
:1028700070472D48016801F00C01042901D120485E
:102880007047016801F00C01082901D12448704704
:10289000016801F00C010C2918D142684168C1F3AC
:1028A0000311491C02F00302032A0CBF1C4A144AFC
:1028B000B2FBF1F241684068C0F34160C1F3062108
:1028C000401C51434000B1FBF0F0704700207047BE
:1028D0000A48154A006813681449C3F3022206E047
:1028E0000648114A006813681049C3F3C222895C84
:1028F00001F01F01C8407047001002400C0000208A
:102900000024F400040000209010024000700040F9
:102910000C809F01FCFFEEFE0020024001B4C404C5
:1029200000366E01E0320008081002406C330008E7
:1029300070B50E4E0446B0680025A0B14FF47A7110
:102940000B4AB1FBF0F11068B0FBF1F000F051F868
:1029500048B9102C07D2002221464FF0FF3000F07A
:1029600020F8746000E00125284670BD00000020BA
:102970000C0000200901020002D42648815470474F
:10298000254B02F00F021A4402F8041C7047234939
:102990000A6860F30A2240F2FA5060F31F420A60AC
:1029A000704770B51D4B1C68C4F302230124C3F1AA
:1029B0000705052D2EBF0F2504FA05F56D1E1E1DFA
:1029C000072E34BF0023DB1E2940994004FA03F38D
:1029D000BDE870405B1E1A401143CBE7010007D4ED
:1029E000012200F01F010E4B8A40400943F82020CD
:1029F0007047401EB0F1807F01D301207047094924
:102A0000094A48600023F02010708B60072008609E
:102A10000020704700E400E018ED00E00CED00E05D
:102A200000E100E010E000E023ED00E070B50446B6
:102A30007C4800BF83A27C4E86B0016841F0010152
:102A40000160006800F001000090009932F8145015
:102A5000019501210291002203210392049101A911
:102A600056F8240000F0F6F800F004F8002006B054
:102A700070BD000056F824000022294600F0BEB9BF
:102A800010B500F007F80122FFE700F0B7F90020C9
:102A900010BD00006BA4644B34F8101053F82000F4
:102AA0007047000080B500BF66A35F4A33F810107E
:102AB00052F8200000F0A7F9002002BDF8B5044646
:102AC000584800BF60A3594D86B0026842F0040226
:102AD000026005EB8406006800F004000090009A94
:102AE00033F814000190022203920492306829B94D
:102AF0000022029201A900F0ADF821E04FF4881203
:102B0000029201A900F0A6F8DFF8241150A001EB11
:102B1000C40750F82410384600F095F9281D00210C
:102B200050F82420384600F087F900BF47A004572A
:102B3000B16800222046FFF734FF2046FFF74EFF22
:102B4000002007B0F0BD0000394901EBC00000F0E3
:102B500080B970B506460025022E86B00C4604DB0F
:102B60006FF00105284606B070BD2E48026842F09D
:102B700001020260016801F001010091009A0368FE
:102B800043F001030360016801F001010091009925
:102B9000026942F0010202610221006900F00100B5
:102BA00000900420009A0291049101900121039168
:102BB00000F012F8082002210190029100F00CF8B8
:102BC00094201C4A46432146901900F05BF90028E6
:102BD000C8D06FF00300C6E70C22059201A94FF0A0
:102BE000904000F037B870B50C461546002604E05A
:102BF00014F8010B00F005F8761CAE42F8D3284615
:102C000070BD71B50C4E0B4C3578942081B04543A6
:102C10004FF47A73012201A96019FFF77DF801983A
:102C200076BD00004C100240743300086033000889
:102C30008C0100209400002098010020002000F06A
:102C4000D9B900002000000000200000280000008A
:102C50000D0000062DE9F84F00276F4CDFF8BC810E
:102C60004FF00F0902460B462EE06D4EB24214BFE4
:102C70004FF0060E4FF0050E0EFA01F141EA050E77
:102C8000684941F82CE0C643A1685D683140ED0217
:102C900048BF0143A160E1685D683140AD0248BFB3
:102CA0000143E16061685D683140AD0348BF0143A5
:102CB0006160216806EA010C5968C90348BF40EA0F
:102CC0000C0CC4F800C07F1C186830FA07F100F043
:102CD00093800121B9400840F5D04FEA470C032505
:102CE00005FA0CF56FEA050E5D6805F00306012E86
:102CF0001CBF05F00305022D10D19568DE680EEAB1
:102D0000050506FA0CF635439560556825EA01017C
:102D10005D68C5F30015BD40294351601D79996870
:102D200005F00305032D08BF012906D0D5680EEA7A
:102D3000050501FA0CF12943D160B9001D7905F0B0
:102D40000305022D11D1FD0802EB850501F01C06DB
:102D5000D5F820B009FA06FA2BEA0A0BD3F810A02E
:102D60000AFA06F646EA0B062E6215680EEA050612
:102D70001D7905F0030505FA0CF545EA060CC2F8C5
:102D800000C05D6815F4403F9DD0D8F800C0254DC7
:102D90004CF0010CC8F800C04FEA970CD8F800E0DE
:102DA0000EF0010ECDF800E001F00C01DDF800E0BE
:102DB00055F82C5009FA01F6B543B2F1904F08BF0F
:102DC0004FF0000E17D0184EB24208BF4FF0010E60
:102DD00011D0164EB24208BF4FF0020E0BD0144E67
:102DE000B24208BF4FF0030E05D0124EB2427FF43C
:102DF0003CAF4FF0040E3FE7BDE8F18F0AB18161AF
:102E0000704781627047426901EA0203914341EAD7
:102E100003418161704700000004014060100240DE
:102E20000014004808000140000400480008004861
:102E3000000C0048001000480346002009B10022A1
:102E400001205A60704708B90120704701600020D6
:102E5000704710B50368012203F01F018A40084C37
:102E6000C3F3004104EB41110B6813421EBF0A601B
:102E70004068002802D0BDE81040004710BD0000A7
:102E80001404014010B50B4A02600C240B68436027
:102E90004461B1F90A2002614B688360B1F90820EE
:102EA000C2604FF40042095F8161C261BDE8104019
:102EB000FEF7EEBE0080004038B500F0C5F800F027
:102EC00059F84F484F4C026842F004020260016812
:102ED00001F004010091009A036843F020030360AD
:102EE000016801F020010091009A036843F001039A
:102EF0000360016801F0010100910099026842F04D
:102F000002020260006800F00200009000980020B9
:102F1000FFF78CFD01210020FFF7D0FD4FF4E130D9
:102F2000002120606160A160A18100202146FFF79F
:102F300010FE08B100F06AF80FF2D4003BA500F0D3
:102F400093F80020FFF79CFD0020FFF7ABFDFFF793
:102F5000D7F90146284600F087F84FF4FA7000F0E0
:102F600097F820690128EFD1002121610020FFF7A7
:102F700099FDE9E700B593B03821002205A800F0DB
:102F80009BF814210022684600F096F8002000F01B
:102F90009DF84FF48071402208910992022005901B
:102FA0000C900D90042155221090119012900E91CA
:102FB0000F9205A8FFF7AAF908B100F027F80F2033
:102FC00003210090019100220292039204920421B5
:102FD0006846FFF779FB08B100F018F813B000BDA0
:102FE00001B54FF0FF33012269460748FEF794FE12
:102FF000009802BD10B90349012008617047000024
:103000004C100240780100209400002072B6FEE7C8
:1030100057656C636F6D6520746F2053544D333268
:1030200020776F726C6420210A0D00004C4544200B
:10303000746F67676C65642C207469636B203D2036
:10304000256C750D0A000000032010B5FFF79FFCEA
:103050000020FFF76DFC0024002814BF012400F0BD
:103060008BF8204610BD00000EB41EB5024605A820
:1030700001900024009401AB0121044878440C30F5
:10308000FDF7ADF803B010BC5DF810FBAD02000019
:1030900038B50446FFF734F914F1010F054602D0A4
:1030A000044988680419FFF72BF9401BA042FAD3A2
:1030B00031BD00BF000000204018491C1CBFB1F109
:1030C000010100F8012DF9D17047000030B532221E
:1030D000DFF89830DFF89050DFF88810012448B905
:1030E00000F01DF820F48070286016D100F01EF862
:1030F0000CD412E0B0F5007F0AD100F010F840F4D3
:103100008070286009D100F011F806D5032030BD89
:103110000A68022060F34A220A60002030BD086875
:1031200000F4C060B0F5806F28687047086864F3E9
:103130004A2008601B68DFF838405A43B2FBF4F0BD
:10314000401C00E0401E4A69530501D50028F9D112
:103150004869410570470748016841F480410160B2
:103160007047000000700040807000400C0000209C
:1031700040420F00087000400B4882B0816841F067
:1031800001018160816801F00101009100990268EC
:1031900042F080520260006800F080500090009879
:1031A00002B0FFF7D8BF00BF5810024080B50D4AEB
:1031B0007A4430320C4B7B442E339A4203D00B4975
:1031C000FFF70EFF02BD8DF80000012269460120C5
:1031D000FFF709FD012802D19DF8000002BD4FF064
:1031E000FF3002BD1CCEFFF718CEFFF748000020CD
:1031F00030B4002512E050F8042BD30744BF4A44F2
:10320000521E091F042942F8045BFAD213468C07A8
:1032100044BF15809B1CC90748BF1D7050F8041B94
:103220000029E8D130BC704710B5074979441831FE
:10323000064C7C44163404E00A68081D1144884793
:103240000146A142F8D110BD6800000084000000D2
:103250004EF68851CEF20001086840F47000086014
:10326000BFF34F8FBFF36F8F4FF00170E1EE100A85
:103270007047000000F00FF8002801D0FFF7D4FFDE
:10328000AFF300800020AFF30080AFF30080FFF7C2
:1032900013FE00F002F80120704700F001B80000B2
:1032A00000F000F807463846FEF7E8FCFBE70000B0
:1032B00041FFFFFF08010000940000200000000013
:1032C000E7DDFFFFC8010000D4000000000000207F
:1032D0000248016841F470010160704788ED00E028
:1032E00000000000000000000102030406070809B6
:1032F0004EF6A550CFF6F560014603B4684680F35C
:103300000988AFF30080FFF7A3FFFFF7B3FFFEE7E5
:10331000FEE7FEE7FEE7FEE770477047704700F004
:1033200003B80020FFF710BC02490A6888688218B9
:103330000A6070470000002038B504460D46284654
:10334000FFF734FFA84218BF0024204632BD00001A
:103350000148804701480047D1320008F132000897
:10336000000800483D2C00080F000000000000008D
:103370000102030400000048FFF7FEBFFFF7FEBF95
:10338000FFF7FEBFFFF7FEBFFFF7FEBFFFF7FEBF71
:10339000FFF7FEBFFFF7FEBFFFF7FEBFFFF7FEBF61
:1033A000FFF7FEBFFFF7FEBFFFF7FEBFFFF7FEBF51
:1033B000FFF7FEBFFFF7FEBFFFF7FEBFFFF7FEBF41
:1033C000FFF7FEBFFFF7FEBFFFF7FEBFFFF7FEBF31
:1033D000FFF7FEBFFFF7FEBFFFF7FEBFFFF7FEBF21
:1033E000FFF7FEBFFFF7FEBFFFF7FEBFFFF7FEBF11
:1033F000FFF7FEBFFFF7FEBFFFF7FEBFFFF7FEBF01
:10340000FFF7FEBFFFF7FEBFFFF7FEBFFFF7FEBFF0
:10341000FFF7FEBFFFF7FEBFFFF7FEBFFFF7FEBFE0
:10342000FFF7FEBFFFF7FEBFFFF7FEBFFFF7FEBFD0
:10343000FFF7FEBFFFF7FEBFFFF7FEBFFFF7FEBFC0
:10344000FFF7FEBFFFF7FEBFFFF7FEBFFFF7FEBFB0
:10345000FFF7FEBFFFF7FEBFFFF7FEBFFFF7FEBFA0
:10346000FFF7FEBFFFF7FEBFFFF7FEBFFFF7FEBF90
:10347000FFF7FEBFFFF7FEBFFFF7FEBFFFF7FEBF80
:10348000FFF7FEBFFFF7FEBFFFF7FEBFFC00001017
:10349000FD000001FC001E24F4006E1100086E11F6
:1034A00000086E1100086E1100086E1100086E1100
:1034B00000086E110008F8FF0BF61000086E1100EE
:1034C000086E110008FAFF0600000204010001FD69
:1034D000000F280100207801002028010020280189
:1034E0000020FC000328010020FC000790000020C1
:0634F0007C000020E0005A
:04000005080032F1CC
:00000001FF
