:020000040800F2
:10000000A80400203D17000817170008191700085A
:100010001B1700081D1700081F170008000000002C
:100020000000000000000000000000002117000890
:1000300023170008000000002517000827170008F4
:100040005D170008611700086517000869170008A8
:100050006D17000871170008751700087917000858
:100060007D17000881170008851700088917000808
:100070008D170008911700089517000899170008B8
:100080009D17000800000000A1170008A517000830
:10009000A9170008AD170008B1170008B517000828
:1000A000B9170008BD170008C1170008C5170008D8
:1000B000C9170008CD170008D1170008D517000888
:1000C000D9170008DD170008E1170008E517000838
:1000D000E9170008ED170008F1170008F5170008E8
:1000E000F9170008FD170008011800080518000896
:1000F000091800080D180008111800080000000079
:100100000000000015180008000000001918000881
:100110001D1800080000000021180008251800081C
:10012000291800082D180008311800083518000893
:100130003918000800000000000000003D18000809
:1001400041180008451800080000000000000000E9
:10015000000000000000000000000000000000009F
:100160000000000000000000000000004918000826
:100170004D18000800000000000000000000000012
:1001800000000000511800080000000000000000FE
:10019000000000000000000000000000000000005F
:1001A0000000000000000000551800085918000861
:1001B0005D180008611800086518000800000000BC
:1001C00000000000691800080000000000000000A6
:1001D0006D1800087118000802206870211D206841
:1001E00000F03BF9012028730121A970E870297102
:1001F0006871A971E87129726872A972E8726970F0
:10020000002032BD38B5040001D1012032BD00F01C
:100210000AF818B900F003F800F0EAFADCE7002168
:1002200029702046704704F13C056878704770B526
:10023000044604F13E0009B902780FE0042908BF22
:1002400042780BD0082908BF827807D00C2908BF54
:10025000C27803D010290CBF02794279012A01D05B
:10026000012070BD11B90222027014E0042902D1EC
:10027000022242700FE0082902D1022282700AE0B5
:100280000C2902D10222C27005E0102907BF022208
:100290000271022343712068012200F09BFA00F0F2
:1002A0002EF818BF904208D088421FBFDFF88C504C
:1002B000A842DFF88C60B04203D1456C45F400459C
:1002C00045642068984218BFB0F1804F09D000F013
:1002D00013F81CBF124DA84203D0904218BF8842A9
:1002E00006D100F012F818BFB0F5803F02D02068A8
:1002F00000F01CF8002070BD084B98427047206841
:10030000054B0949074A9842704781680A480840E6
:100310000628704700000000002C01400004004047
:1003200000080040003401400040014001680246DE
:1003300041F00101116070470700010000440140D5
:100340000048014070B500F082F80E4601D102204D
:1003500070BD012084F83C0052B1042A19D0082A4B
:1003600029D00C2A38D0102A48D0142A57D068E057
:10037000206800F0C4F82168886940F008008861AE
:10038000886920F0040088618A69306902438A61C3
:1003900058E0206800F0F7F82068816941F40061B6
:1003A0008161816921F4806181618169326941EAF9
:1003B0000221816146E0206800F020F92168C869C7
:1003C00040F00800C861C86920F00400C861CA692B
:1003D00030690243CA6135E0206800F051F92068B5
:1003E000C16941F40061C161C16921F48061C161E9
:1003F000C169326941EA0221C16123E0206800F04D
:100400007DF92168086D40F008000865086D20F04E
:10041000040008650A6D306902430A6512E020682D
:1004200000F096F92068016D41F400610165016DED
:1004300021F480610165016D326941EA02210165A3
:1004400000E00125002084F83C00284670BD0446E9
:10045000002594F83C00012870472DE9F04103681D
:10046000DFF858C3DFF85043DFF83C53DFF83C6354
:10047000DFF83C83DFF84823DFF838E3604518BF36
:10048000B0F1804F04D070451CBF904240450CD164
:1004900023F070074B683B43604518BFB0F1804FB5
:1004A0000BD0704518BF904207D0404518BFB042EE
:1004B00003D0A84218BFA04203D123F44072CB68F6
:1004C00013434A69D1F808E0C0F82CE023F0800318
:1004D00013430A688262604518BF404504D0B042A9
:1004E0001CBFA842A04201D1096901630121026831
:1004F00042F00402026041610360BDE8F0812DE931
:10050000F041066A026ADFF8B4E2DFF8A082DFF8A1
:10051000A0C252085200026226F0020643688569B2
:10052000DFF8A0220C6815402C438D68DFF8882284
:100530003543DFF87462704518BF604504D040450C
:100540001CBFB04290420FD1076A27F00407076230
:1005500025F00807CD683D43704518BF604505D0BC
:10056000404518BFB04201D0904205D14A6923F4FA
:1005700040731A438B691343436084614968416344
:100580000562BDE8F081F0B5056A026ADFF838421D
:1005900022F01002026225F020054368826900F013
:1005A000A7F845EA021500F065F818BF90420AD195
:1005B000076A27F04007076225F08005CF68B04240
:1005C00045EA07150DD090421CBFDFF8E0219042AC
:1005D00007D0DFF8D461B0421CBFDFF8DC219042C5
:1005E00006D14E698A6923F44063164343EA8603C1
:1005F00043608461496881630562F0BDF0B5046AB7
:10060000026A22F48072026224F400744368C669AC
:10061000DFF8B0210D6816408A68354344EA0224A9
:1006200000F028F818BF90420AD1076A27F48067C3
:10063000076224F40064CF68B04244EA07240CD077
:1006400090421CBFDFF86421904206D0564EB04263
:100650001CBFDFF86421904206D14E698A6923F4F9
:100660004053164343EA06134360C5614968C163BA
:100670000462F0BDDFF84461DFF83421B042704716
:10068000F0B5056A026ADFF8404122F48052026246
:1006900025F400554368C26900F02AF845EA02359E
:1006A000FFF7E8FF18BF90420AD1076A27F4804796
:1006B000076225F40045CF68B04245EA07350AD005
:1006C00090421CBF394A904205D0374EB0421CBF01
:1006D000394A904206D14E698A6923F44043164351
:1006E00043EA86134360C461496801640562F0BD52
:1006F0000E6814408A6844EA0624704770B5046A9C
:10070000026A2E4E22F48032026224F400344368DE
:10071000056D2E4A15400A682A438D6844EA05444F
:10072000B0421CBF224DA84207D0204EB0421FBF8E
:100730001D4DA842204EB04204D14D6923F48033B0
:1007400043EA05234360026549688164046270BD21
:1007500070B5046A026A1E4B22F48012026224F40D
:1007600000144268056D0E682B4043EA06238D682D
:10077000124E44EA0554B0421CBF0D4DA84207D0AA
:100780000A4EB0421FBF084DA8420B4EB04204D1E2
:100790004D6922F4802242EA85224260036549685D
:1007A000C164046270BD000000440140004001408B
:1007B000003401400004004000480140002C01408A
:1007C000000800408CFFFEFFFF8CFFFE8FFFFEFF46
:1007D000FF8FFFFE10B501F01F01036A01248C405A
:1007E000A343036202FA01F1036A1943016210BDD7
:1007F00070470EE002684368024408305FEAC37C39
:1008000044BF4B445B1E52F804CB43F804CB091F92
:10081000F9D150F8041B0029ECD170472DE9F843B9
:1008200004006DD02078DFF8B865C10717D500F057
:10083000CDF90CD101F0030103290AD06068B0F5AD
:10084000803F2AD1306840F48030306037E008289B
:10085000F4D13068810302D56068002850D0217837
:10086000880759D500F0B2F943D101F003010229FC
:1008700041D0E06800286AD0316841F4807131606D
:1008800000F0C8FA0546306841055DD400F0C2FAB0
:10089000401B0328F7D303205FE1B0F5A02F306899
:1008A00006D140F480203060316841F4803105E0A9
:1008B00020F480303060316821F48021316060683C
:1008C00058B100F0A7FA054630688103C7D400F09C
:1008D000A1FA401B6528F7D3DDE700F09BFA054637
:1008E00030688103BBD500F095FA401B6528F7D32B
:1008F000D1E70428BDD13068410503D5E068002860
:1009000000F05A8100F05AF9DFF8E004006800F0C6
:1009100087FA002840F050812078DFF8D47401076E
:1009200034D560690028786821D040F001007860F3
:1009300000F070FA05467868810727D400F06AFA5B
:10094000401B0328F7D3A6E700F038F9E4E7306846
:1009500020F48070306000F05DFA05463068410593
:10096000DAD500F057FA401B0328F7D393E7400885
:100970004000786000F04EFA05467868810705D59A
:1009800000F048FA401B0328F7D384E7207841079A
:1009900063D5B06D0025C10009D4B06D40F0805022
:1009A000B0650125B06D00F0805000900098DFF830
:1009B0004494D9F80000C10513D4D9F8000040F4DC
:1009C0008070C9F8000000F025FA8046D9F80000D0
:1009D000C10506D400F01EFAA0EB08000328F5D3E9
:1009E00059E7A068012804D1386840F00100386058
:1009F00010E00528386806D140F0040038603968F6
:100A000041F0010105E0400840003860396821F0FC
:100A100004013960A06841F2893860B100F0FAF948
:100A200081463868810713D400F0F4F9A0EB09007F
:100A30004045F6D32FE700F0EDF98146386881078D
:100A400006D500F0E7F9A0EB09004045F6D322E710
:100A50001DB1B06D20F08050B0652078810621D5A1
:100A6000A0690028B8680ED040F00100B86000F01E
:100A7000D1F90546B868810714D400F0CBF9401BC2
:100A80000328F7D307E740084000B86000F0C2F938
:100A90000546B868810705D500F0BCF9401B03285E
:100AA000F7D3F8E6E069002856D0B16801F00C01F0
:100AB0000C2954D00228306820F0807030603AD180
:100AC00000F0A8F905463068810105D500F0A2F9CB
:100AD000401B0328F7D3DEE6F268DFF81C03216A27
:100AE0000240606A0A43401E42EA0012216BA06A7B
:100AF000490842EA0022606B491E400842EA41521E
:100B0000401E42EA4062E06A42EAC062F260316836
:100B100041F080713160F06840F08070F06000F06A
:100B200079F904463068810116D400F073F9001B8E
:100B30000328F7D3AFE600F06DF904463068810171
:100B400005D500F067F9001B0328F7D3A3E6F16889
:100B5000DFF8A8020140F1600020BDE8F28301281F
:100B60002AD0F068226A00F00301914201BF00F030
:100B7000F0011031626AB1EB021F1DD1A26A00F4CC
:100B8000FE41B1EB022F02BF00F07841E26AB1EB07
:100B9000C26F11D1226B00F4C00101F5001152089F
:100BA000B1EB425F08D1616B00F0C06000F10070F2
:100BB0004908B0EB416FCFD00120CEE770682169C2
:100BC00020F0FE4040EA016070607047B068F16854
:100BD00000F00C000C2870472DE9F84F0446002661
:100BE000002C6CD0DFF818723868894600F00F00CE
:100BF000484506D200F0BFF8386800F00F004845BD
:100C00005DD12068DFF8D851C10741F2893858D545
:100C10006168DFF8F0B103294FF0080A27D129688D
:100C20008A014CD5EA68E968C1F30311491C02F056
:100C30000302032A0CBFDFF8D021DFF8AC21B2FB9E
:100C4000F1F2E968C1F306215143EA68C2F3416257
:100C5000521C5200B1FBF2F1594516D3AA6812F0AA
:100C6000F00F0DD0810710D5A06870B908E00229F7
:100C7000286822D1810322D500F083F8584504D397
:100C8000A8686AF30710A8608026A96860688908C8
:100C900040EA8101A96000F0BDF88246A868616859
:100CA00000F00C00B0EB810F0BD000F0B3F8A0EB1C
:100CB0000A004045F2D303205BE04105DCD401206B
:100CC00057E02068810714D5400703D5A96841F48F
:100CD000E061A9602078010704D5A968072060F3C6
:100CE0000D21A960A968A06821F0F0010143A96065
:100CF00005E0802E03D1A86820F0F000A8603868D5
:100D000000F00F0081450FD200F035F800F082F8B6
:100D10000646386800F00F00484505D000F07AF824
:100D2000801B4045F5D3C6E72078420705D5A96862
:100D3000E06821F4E0610143A9602178080706D545
:100D4000A968206921F4605141EAC001A96000F05E
:100D500018F8AA682D49C2F30312895C214A01F0F0
:100D60001F01C8401060BDE8F24F2048006800F045
:100D700057B8BDE8F28F3968090949EA01113960AD
:100D800070472348016801F00C01042901D116487D
:100D90007047016801F00C01082901D11A48704719
:100DA000016801F00C010C2918D142684168C1F3B7
:100DB0000311491C02F00302032A0CBF124A0A4A1B
:100DC000B2FBF1F241684068C0F34160C1F3062113
:100DD000401C51434000B1FBF0F0704700207047C9
:100DE000001002400C0000200024F4000400002049
:100DF00090100240007000400C809F01FCFFEEFE4E
:100E00000020024001B4C40400127A00E816000871
:100E10000810024001480068704700BF0000002031
:100E200070B50E4E0446B0680025A0B14FF47A713B
:100E30000B4AB1FBF0F11068B0FBF1F000F046F89E
:100E400048B9102C07D2002221464FF0FF3000F0A5
:100E500020F8746000E00125284670BD00000020E5
:100E60000C0000200901020002D42148815470477F
:100E7000204B02F00F021A4402F8041C70471E496E
:100E80000A6860F30A2240F2FA5060F31F420A60D7
:100E9000704770B5184B1C68C4F302230124C3F1DA
:100EA0000705052D2EBF0F2504FA05F56D1E1E1D25
:100EB000072E34BF0023DB1E2940994004FA03F3B8
:100EC000BDE870405B1E1A401143CBE7401EB0F1F5
:100ED000807F01D3012070470849094A48600023F8
:100EE000F02010708B600720086000207047000021
:100EF00000E400E018ED00E00CED00E010E000E0A0
:100F000023ED00E0010002D140F2E7307047642891
:100F100001DB0020704709E000EB80106421B0FB8A
:100F2000F1F02330642801D3002070476FF00901ED
:100F3000484300F2E73070472DE9F04F87B000F0EA
:100F4000DBF900F09FF900F0D0F9C94C216841F0BD
:100F5000010121604FF48065206800F001000590D8
:100F60000599226842F0020222600221206800F006
:100F7000020005901020059A009000220292039230
:100F800001910222049200F06FF901210491009571
:100F900000F06AF90021019101220491029200956A
:100FA00069464FF0904000F0B7F9082000F057F97B
:100FB000202000F054F9E06840F00100E0601C21BE
:100FC000E06800F0010000F044F9AA494FF08040C9
:100FD0000860A922002088604A60084640F2E73293
:100FE000C260002102468020906111611046FFF727
:100FF00009F908B100F07EF9602040F2E7310022E3
:101000000090019102920492694608229948FFF7E4
:1010100099F908B100F06EF9E06840F00200E06074
:101020001C21E06800F0020000F013F99149924899
:10103000C864A922084600210265024640F2E73052
:10104000516511460022886508468021C2654166C7
:101050008A48FFF7D7F808B100F04CF9602040F259
:10106000E731009001910022029204926946834880
:10107000FFF768F908B100F03DF97E49CA6C40F20B
:10108000E730506300250A68D06300217B48FFF7F2
:10109000CEF808217748FFF7CAF800F0D0F80646E6
:1010A000082100F0D3F88DF800004FF0010B00F09C
:1010B000CCF88DF80150CDF804B005958DF802609C
:1010C000049503950446DDF804A09DF8016002959F
:1010D000A946A846019533E05FFA89F0002802BFCF
:1010E0004FF0FF314FFA8AF0884222D14FF0010AC7
:1010F0001FE05FFA88F0002802BF4FF0FF318B45F8
:101100004FF0010B5FFA88F0FFF706FF5949CA6CF0
:101110005063012E14D10198381A1E2810D3D144DF
:101120005FFA89F164290197D6DB4FF064094FF02B
:10113000FF3A5FFA89F0FFF7E5FE4E490A68D0638F
:10114000FFF768FE074600F080F8012C15D101007A
:1011500013D10399791AB1F5967F0ED3454AD36C12
:1011600040F2E7315963002513684FF0010BD96352
:10117000A8460026A946DA460397044600F05FF821
:101180008DF801009DF80200012804BF9DF80100C0
:10119000002818D10598381AB0F5967F13D3280087
:1011A0000BD102970020FFF7B7FE3249CA6C012528
:1011B0004FF00008AB46506304E0012D0EBF02253E
:1011C0000125029705979DF801102D488DF8021012
:1011D000082100F075F99DF80010012918D10100CF
:1011E00016D10499791AB1F5967F11D356B9214ACF
:1011F00001970126136840F2E7314FF00009B2462B
:10120000D96304E0012E0EBF022601260197049740
:10121000012D8DF800007FF47CAF0298381AB0F5EC
:10122000967FFFF476AFD8445FFA88F1642902977D
:10123000FFF65FAF4FF064084FF0FF3B62E74FF4FB
:1012400080614FF0904000F03BB920210C4800F045
:1012500037B9009000220098684600F047B9002195
:1012600000900191012202926946054800F054B8AD
:101270004C10024010000020000400405C000020E0
:101280000004004800B593B03821002205A800F002
:101290002DF900F02AF8002000F032F94FF48071A7
:1012A000402208910992022005900C900D90042193
:1012B00055221090119012900E910F9205A8FFF7F1
:1012C000ADFA08B100F016F80F200321009001914B
:1012D000002202920392049204216846FFF77CFCEC
:1012E00008B100F007F813B000BD142100226846D1
:1012F00000F0FCB872B6FEE7032010B5FFF7BFFDA3
:101300000F20FFF78DFD0024002814BF012400F0FA
:101310004DF9204610BD00002DE9F84F00276B4C19
:10132000DFF8AC814FF00F0902460B462EE0694E04
:10133000B24214BF4FF0060E4FF0050E0EFA01F147
:1013400041EA050E644941F82CE0C643A1685D6896
:101350003140ED0248BF0143A160E1685D68314062
:10136000AD0248BF0143E16061685D683140AD0393
:1013700048BF01436160216806EA010C5968C9034E
:1013800048BF40EA0C0CC4F800C07F1C186830FA53
:1013900007F100F093800121B9400840F5D04FEAF1
:1013A000470C032505FA0CF56FEA050E5D6805F09C
:1013B0000306012E1CBF05F00305022D10D1956810
:1013C000DE680EEA050506FA0CF6354395605568A9
:1013D00025EA01015D68C5F30015BD402943516050
:1013E0001D79996805F00305032D08BF012906D072
:1013F000D5680EEA050501FA0CF12943D160B90060
:101400001D7905F00305022D11D1FD0802EB8505BC
:1014100001F01C06D5F820B009FA06FA2BEA0A0BEF
:10142000D3F810A00AFA06F646EA0B062E621568F3
:101430000EEA05061D7905F0030505FA0CF545EAE7
:10144000060CC2F800C05D6815F4403F9DD0D8F886
:1014500000C0214D4CF0010CC8F800C04FEA970CB9
:10146000D8F800E00EF0010ECDF800E001F00C011C
:10147000DDF800E055F82C5009FA01F6B543B2F159
:10148000904F08BF4FF0000E17D0144EB24208BF65
:101490004FF0010E11D0124EB24208BF4FF0020EB3
:1014A0000BD0104EB24208BF4FF0030E05D00E4EC7
:1014B000B2427FF43CAF4FF0040E3FE7BDE8F18F3E
:1014C0000069084018BF0120C0B270470004014005
:1014D0006010024000140048080001400004004869
:1014E00000080048000C0048001000484018491C43
:1014F0001CBFB1F1010100F8012DF9D170470000C6
:1015000030B53222DFF89830DFF89050DFF88810DD
:10151000012448B900F01DF820F48070286016D12D
:1015200000F01EF80CD412E0B0F5007F0AD100F0F4
:1015300010F840F48070286009D100F011F806D549
:10154000032030BD0A68022060F34A220A600020AE
:1015500030BD086800F4C060B0F5806F286870473F
:10156000086864F34A2008601B68DFF838405A4373
:10157000B2FBF4F0401C00E0401E4A69530501D55F
:101580000028F9D14869410570470748016841F4CE
:101590008041016070470000007000408070004092
:1015A0000C00002040420F00087000400B4882B041
:1015B000816841F001018160816801F001010091C1
:1015C0000099026842F080520260006800F080508A
:1015D0000090009802B0FFF7D8BF00BF581002403B
:1015E00030B4002512E050F8042BD30744BF4A441E
:1015F000521E091F042942F8045BFAD213468C07D5
:1016000044BF15809B1CC90748BF1D7050F8041BC0
:101610000029E8D130BC704710B50749794418312A
:10162000064C7C44163404E00A68081D11448847BF
:101630000146A142F8D110BD7C0000009C000000D2
:101640004EF68851CEF20001086840F47000086040
:10165000BFF34F8FBFF36F8F4FF00170E1EE100AB1
:101660007047000000F00FF8002801D0FFF7D4FF0A
:10167000AFF300800020AFF30080AFF30080FFF7EE
:101680005BFC00F002F80120704700F001B8000098
:1016900000F000F80746384600F002F8FBE70000CB
:1016A00080B5AFF30080024A11001820ABBEFBE703
:1016B000260002002DFFFFFF980000001000002010
:1016C000000000002FF1FFFF10000000800000006C
:1016D00000000020000000000248016841F4700191
:1016E0000160704788ED00E000000000000000008D
:1016F00001020304060708094EF6A550CFF6F5606F
:10170000014603B4684680F30988AFF30080FFF711
:1017100097FFFFF7A7FFFEE7FEE7FEE7FEE7FEE71E
:1017200070477047704700F001B8000002490A682E
:10173000886882180A6070470000002001488047CE
:1017400001480047D9160008F916000800000000FB
:1017500010000000010000000024F400FFF7FEBFAD
:10176000FFF7FEBFFFF7FEBFFFF7FEBFFFF7FEBFAD
:10177000FFF7FEBFFFF7FEBFFFF7FEBFFFF7FEBF9D
:10178000FFF7FEBFFFF7FEBFFFF7FEBFFFF7FEBF8D
:10179000FFF7FEBFFFF7FEBFFFF7FEBFFFF7FEBF7D
:1017A000FFF7FEBFFFF7FEBFFFF7FEBFFFF7FEBF6D
:1017B000FFF7FEBFFFF7FEBFFFF7FEBFFFF7FEBF5D
:1017C000FFF7FEBFFFF7FEBFFFF7FEBFFFF7FEBF4D
:1017D000FFF7FEBFFFF7FEBFFFF7FEBFFFF7FEBF3D
:1017E000FFF7FEBFFFF7FEBFFFF7FEBFFFF7FEBF2D
:1017F000FFF7FEBFFFF7FEBFFFF7FEBFFFF7FEBF1D
:10180000FFF7FEBFFFF7FEBFFFF7FEBFFFF7FEBF0C
:10181000FFF7FEBFFFF7FEBFFFF7FEBFFFF7FEBFFC
:10182000FFF7FEBFFFF7FEBFFFF7FEBFFFF7FEBFEC
:10183000FFF7FEBFFFF7FEBFFFF7FEBFFFF7FEBFDC
:10184000FFF7FEBFFFF7FEBFFFF7FEBFFFF7FEBFCC
:10185000FFF7FEBFFFF7FEBFFFF7FEBFFFF7FEBFBC
:10186000FFF7FEBFFFF7FEBFFFF7FEBFFFF7FEBFAC
:04187000FFF7FEBFC1
:04000005080016F9E0
:00000001FF
